{
  "contractName": "Storage",
  "abi": [
    {
      "constant": false,
      "inputs": [
        {
          "name": "_imageHash",
          "type": "string"
        },
        {
          "name": "_metaHash",
          "type": "string"
        },
        {
          "name": "_perceptual_hash",
          "type": "string"
        },
        {
          "name": "_cryptographic_hash",
          "type": "string"
        }
      ],
      "name": "set",
      "outputs": [],
      "payable": false,
      "stateMutability": "nonpayable",
      "type": "function",
      "signature": "0xf60886b5"
    },
    {
      "constant": true,
      "inputs": [],
      "name": "getImageHash",
      "outputs": [
        {
          "name": "",
          "type": "string"
        }
      ],
      "payable": false,
      "stateMutability": "view",
      "type": "function",
      "signature": "0x2c695e66"
    },
    {
      "constant": true,
      "inputs": [],
      "name": "getMetaHash",
      "outputs": [
        {
          "name": "",
          "type": "string"
        }
      ],
      "payable": false,
      "stateMutability": "view",
      "type": "function",
      "signature": "0x0fd43272"
    },
    {
      "constant": true,
      "inputs": [],
      "name": "getPerceptual",
      "outputs": [
        {
          "name": "",
          "type": "string"
        }
      ],
      "payable": false,
      "stateMutability": "view",
      "type": "function",
      "signature": "0xc591ebc9"
    },
    {
      "constant": true,
      "inputs": [],
      "name": "getCryptographic",
      "outputs": [
        {
          "name": "",
          "type": "string"
        }
      ],
      "payable": false,
      "stateMutability": "view",
      "type": "function",
      "signature": "0x70c69c31"
    }
  ],
  "bytecode": "0x608060405234801561001057600080fd5b506108fa806100206000396000f3fe60806040526004361061006d576000357c0100000000000000000000000000000000000000000000000000000000900463ffffffff1680630fd43272146100725780632c695e661461010257806370c69c3114610192578063c591ebc914610222578063f60886b5146102b2575b600080fd5b34801561007e57600080fd5b5061008761053f565b6040518080602001828103825283818151815260200191508051906020019080838360005b838110156100c75780820151818401526020810190506100ac565b50505050905090810190601f1680156100f45780820380516001836020036101000a031916815260200191505b509250505060405180910390f35b34801561010e57600080fd5b506101176105e1565b6040518080602001828103825283818151815260200191508051906020019080838360005b8381101561015757808201518184015260208101905061013c565b50505050905090810190601f1680156101845780820380516001836020036101000a031916815260200191505b509250505060405180910390f35b34801561019e57600080fd5b506101a7610683565b6040518080602001828103825283818151815260200191508051906020019080838360005b838110156101e75780820151818401526020810190506101cc565b50505050905090810190601f1680156102145780820380516001836020036101000a031916815260200191505b509250505060405180910390f35b34801561022e57600080fd5b50610237610725565b6040518080602001828103825283818151815260200191508051906020019080838360005b8381101561027757808201518184015260208101905061025c565b50505050905090810190601f1680156102a45780820380516001836020036101000a031916815260200191505b509250505060405180910390f35b3480156102be57600080fd5b5061053d600480360360808110156102d557600080fd5b81019080803590602001906401000000008111156102f257600080fd5b82018360208201111561030457600080fd5b8035906020019184600183028401116401000000008311171561032657600080fd5b91908080601f016020809104026020016040519081016040528093929190818152602001838380828437600081840152601f19601f8201169050808301925050505050505091929192908035906020019064010000000081111561038957600080fd5b82018360208201111561039b57600080fd5b803590602001918460018302840111640100000000831117156103bd57600080fd5b91908080601f016020809104026020016040519081016040528093929190818152602001838380828437600081840152601f19601f8201169050808301925050505050505091929192908035906020019064010000000081111561042057600080fd5b82018360208201111561043257600080fd5b8035906020019184600183028401116401000000008311171561045457600080fd5b91908080601f016020809104026020016040519081016040528093929190818152602001838380828437600081840152601f19601f820116905080830192505050505050509192919290803590602001906401000000008111156104b757600080fd5b8201836020820111156104c957600080fd5b803590602001918460018302840111640100000000831117156104eb57600080fd5b91908080601f016020809104026020016040519081016040528093929190818152602001838380828437600081840152601f19601f8201169050808301925050505050505091929192905050506107c7565b005b606060038054600181600116156101000203166002900480601f0160208091040260200160405190810160405280929190818152602001828054600181600116156101000203166002900480156105d75780601f106105ac576101008083540402835291602001916105d7565b820191906000526020600020905b8154815290600101906020018083116105ba57829003601f168201915b5050505050905090565b606060008054600181600116156101000203166002900480601f0160208091040260200160405190810160405280929190818152602001828054600181600116156101000203166002900480156106795780601f1061064e57610100808354040283529160200191610679565b820191906000526020600020905b81548152906001019060200180831161065c57829003601f168201915b5050505050905090565b606060028054600181600116156101000203166002900480601f01602080910402602001604051908101604052809291908181526020018280546001816001161561010002031660029004801561071b5780601f106106f05761010080835404028352916020019161071b565b820191906000526020600020905b8154815290600101906020018083116106fe57829003601f168201915b5050505050905090565b606060018054600181600116156101000203166002900480601f0160208091040260200160405190810160405280929190818152602001828054600181600116156101000203166002900480156107bd5780601f10610792576101008083540402835291602001916107bd565b820191906000526020600020905b8154815290600101906020018083116107a057829003601f168201915b5050505050905090565b83600090805190602001906107dd929190610829565b5082600390805190602001906107f4929190610829565b50816001908051906020019061080b929190610829565b508060029080519060200190610822929190610829565b5050505050565b828054600181600116156101000203166002900490600052602060002090601f016020900481019282601f1061086a57805160ff1916838001178555610898565b82800160010185558215610898579182015b8281111561089757825182559160200191906001019061087c565b5b5090506108a591906108a9565b5090565b6108cb91905b808211156108c75760008160009055506001016108af565b5090565b9056fea165627a7a7230582034dd48b8caad7c9b591b0a49920b63cca01447ed4f6e19c2693f814d0aec1f760029",
  "source": "pragma solidity 0.5.0;\n\ncontract Storage {\n\tstring imageHash;\n\tstring perceptual_hash;\n\tstring cryptographic_hash;\n\tstring metaHash;\n\n\t//Write Functions(store to blockchain)\n\tfunction set(string memory _imageHash, string memory _metaHash, \n\tstring memory _perceptual_hash, string memory _cryptographic_hash) public {\n\t\timageHash = _imageHash;\n\t\tmetaHash = _metaHash;\n\t\tperceptual_hash = _perceptual_hash;\n\t\tcryptographic_hash= _cryptographic_hash;\n\t\t\n\t}\n\n\t//Read Function(read from blockchain)\n\tfunction getImageHash() public view returns (string memory) {\n\t\treturn imageHash;\n\t}\n\tfunction getMetaHash() public view returns (string memory) {\n\t\treturn metaHash;\n\t}\n\tfunction getPerceptual() public view returns (string memory) {\n\t\treturn perceptual_hash;\n\t}\n\tfunction getCryptographic() public view returns (string memory) {\n\t\treturn cryptographic_hash;\n\t}\n}",
  "sourcePath": "/home/ad105/btechProject/src/contracts/Storage.sol",
  "compiler": {
    "name": "solc",
    "version": "0.5.0+commit.1d4f565a.Emscripten.clang"
  },
  "schemaVersion": "3.0.2",
  "updatedAt": "2021-12-02T12:40:36.177Z",
  "devdoc": {
    "methods": {}
  },
  "userdoc": {
    "methods": {}
  }
}